:020000040800F2
:10000000D0070020052B00080D2B00080F2B00083F
:10001000112B0008132B0008152B0008000000000E
:10002000000000000000000000000000172B000886
:10003000192B0008000000001B2B00081D2B0008D6
:100040001F2B00081F2B00081F2B00081F2B000868
:100050001F2B00081F2B00081F2B00081F2B000858
:100060001F2B00081F2B00081F2B00081F2B000848
:100070001F2B00081F2B00081F2B00081F2B000838
:100080001F2B00081F2B00081F2B00081F2B000828
:100090001F2B00081F2B00081F2B00081F2B000818
:1000A0001F2B00081F2B00081F2B00081F2B000808
:1000B0001F2B0008630D00081F2B00081F2B0008D2
:1000C0001F2B00081F2B00081F2B00081F2B0008E8
:1000D0001F2B000837040008950500081F2B000897
:1000E0001F2B00081F2B00081F2B000800F002F830
:1000F00000F04AF80AA090E8000C82448344AAF178
:100100000107DA4501D100F03FF8AFF2090EBAE875
:100110000F0013F0010F18BFFB1A43F0010318473B
:10012000084C0000284C0000103A24BF78C878C161
:10013000FAD8520724BF30C830C144BF04680C60ED
:10014000704700000023002400250026103A28BF35
:1001500078C1FBD8520728BF30C148BF0B60704739
:10016000662904F09585642903F016800020704705
:100170001FB503F075FB04000020002104F0C8F84F
:10018000E0601FBD10B510BD03F080FC1146FFF705
:10019000EFFF00F03AF803F09EFC03B4FFF7F2FF24
:1001A00003BC00F0ADF8000000B58FB002F039FDDF
:1001B00000F040F800F091F800F0D5F800F027F9D1
:1001C00000F09AFD00F0ABFA00221146012000F089
:1001D00060FD00F056FE00210C910D910A910B91EB
:1001E00008910991069107910491059102910C489B
:1001F00003910C494FF033320B4BCDE90001500015
:100200000A4900F034FF0FB000BDFFF7CDFF05E055
:1002100007480078012801D100F05EFFF8E70000F0
:100220009A9999999999E93F3333C33F6666184083
:100230001800002000B587B0012144F2050001F04C
:10024000EFFC4FF40070ADF8180003208DF81A0091
:1002500018208DF81B0006A9E74801F025FA4FF495
:100260008060ADF8180048208DF81B0006A9E24810
:1002700001F01AFA4FF4E13002900020ADF80C00C2
:10028000ADF80E00ADF81000ADF814000C20ADF87C
:1002900012000020ADF80000ADF802004FF400702D
:1002A000ADF804000020ADF80600012240F225510F
:1002B000D24802F012FE6946D04802F0EBFD02A9D6
:1002C000CE4802F072FD0121CC4802F0FAFD402137
:1002D000CA4802F0DEFE07B000BD08B54FF4A060CA
:1002E00001F014F925208DF8000001208DF801009F
:1002F0008DF802008DF80300684601F00CF908BD86
:10030000014600BF7047C2B2BC4B1B1D1A8000BF24
:10031000BA4A128802F04002002AF9D07047B74961
:10032000091D088000BFB549098801F04001002976
:10033000F9D070470BE010F8011BB04A121D118074
:1003400000BFAE49098801F040010029F9D00178C9
:100350000029F0D1704700B50D20FFF7E0FF0A201B
:10036000FFF7DDFF00BD00B587B00121052001F0DA
:1003700057FC0121480401F060FC0420ADF818008E
:1003800003208DF81A0018208DF81B0006A99A4842
:1003900001F08AF90820ADF8180048208DF81B00FC
:1003A00006A9954801F080F94FF4E1300290002051
:1003B000ADF80C00ADF80E00ADF81000ADF814006B
:1003C0000C20ADF812000020ADF80000ADF80200DE
:1003D0004FF40070ADF804000020ADF806000122D3
:1003E00040F22551864802F078FD6946844802F0C3
:1003F00051FD02A9824802F0D8FC0121804802F098
:1004000060FD40217E4802F044FE07B000BD08B503
:100410004FF4A06001F07AF826208DF8000000204B
:100420008DF8010001208DF802008DF80300684668
:1004300001F071F808BD70B5002440F225516F48F5
:1004400002F030FE00286FD06C4802F0ABFDC4B261
:10045000312C0AD16B48006832306A49086008467E
:10046000016869A002F064FE88E0322C0AD1654878
:1004700000683238634908600846016862A002F0EB
:1004800057FE7BE0332C11D16348644A644BD0E9BA
:100490000051284603F052FF5F4A03C25E49D1E98A
:1004A00000532A465FA002F043FE67E0342C11D1CE
:1004B0005949D1E90051594A594B284604F0FEFAEE
:1004C000554A03C25448D0E900532A4655A002F0C9
:1004D0002FFE53E0352C12D14F49D1E90251544A35
:1004E000544B284603F02AFF4B4AC2E9020110464A
:1004F000D0E902532A4650A002F01AFE3EE0362C04
:1005000013D14549D1E90251494A4A4B284604F0E2
:10051000D5FA414AC2E902011146D1E902532A46FD
:1005200045A002F005FE29E033E0372C12D13A480D
:100530003A4A3B4BD0E90451284603F0FFFE364AC5
:10054000C2E904011046D0E904532A463DA002F056
:10055000EFFD13E0382C11D12F49D1E904512F4A76
:100560002F4B284604F0AAFA2B4AC2E90401104690
:10057000D0E904532A4633A002F0DAFD21461F4891
:1005800002F00CFD00BF80211C4802F075FD002820
:10059000F9D070BD10B540F22551194802F082FD26
:1005A00038B3174802F0FEFC29492A4A12788854C9
:1005B0002848007820B908460078552800D010BD9A
:1005C00024480078401C23490870084600780B280E
:1005D0000FD121481E490A6802604A6842600A89B0
:1005E0000281897A817200201A49087001201B4912
:1005F000087000BFE3E70000000801400038014038
:10060000004400401C000020506F77657242617307
:10061000653A253130640A00B00000209A99999912
:100620009999B93F503A2531302E326C660A000054
:100630007B14AE47E17A843F493A2531302E326C43
:10064000660A0000443A2531302E326C660A0000FA
:100650004800002004000020A00000200500002029
:1006600000B589B00121082001F0DAFA0121042047
:1006700001F0E3FA0121084601F0D2FA4FF470705C
:10068000ADF8040003208DF8060018208DF807004F
:1006900001A9574801F008F84EF65F20ADF81C009C
:1006A0000220ADF818000020ADF81A00ADF81E00C9
:1006B0008DF8200006A94F4801F0EAFB6020ADF854
:1006C00008000120ADF80A000020ADF81000ADF8D8
:1006D0000E0002A9474801F018FC0821454802F025
:1006E00063F802A9434801F052FC0821414802F096
:1006F00064F802A93F4801F097FC08213D4802F048
:1007000069F802A93B4801F0DAFC0821394802F0F7
:100710006AF80121374801F017FF09B000BD10B594
:10072000FFF79EFF10BD2DE9F05F04460D4692468F
:100730009B46BBF1010F0FD1BAF82C10481C04F0F6
:1007400036F8804622462B4604F084F8064604F02C
:1007500001F8AAF8340037E0BBF1020F0FD1BAF864
:100760002C10481C04F023F8064622462B4604F0C1
:1007700071F8804603F0EEFFAAF8380024E0BBF1E0
:10078000030F0FD1BAF82C10481C04F010F80646DD
:1007900022462B4604F05EF8804603F0DBFFAAF801
:1007A0003C0011E0BBF1040F0ED1BAF82C10481C2C
:1007B00003F0FDFF064622462B4604F04BF8804628
:1007C00003F0C8FFAAF84000BDE8F09F012A01D15C
:1007D00088860BE0022A01D1088707E0032A01D1AD
:1007E000888703E0042A01D1A1F840007047000087
:1007F000000C01400008004010B501F0A3F84FF4D0
:10080000803001F0BFF801F0FCF8012820D1002071
:1008100001F03DF9002001F04CF94FF4806001F047
:100820003FF94FF4E0114FF4803001F013F901204B
:1008300001F01CF900BF392001F0C7F80028FAD0F8
:10084000022001F016F900BF01F01CF90828FBD1C5
:1008500010BD00E0401E0028FCD17047014601EBAE
:10086000C1024FF0E0235A6100229A6101221A610D
:1008700000BF4FF0E022106900F001021AB100F44D
:100880008032002AF5D000224FF0E0231A619A61ED
:100890007047014642F228324A434FF0E0235A6142
:1008A00000229A6101221A6100BF4FF0E022106914
:1008B00000F001021AB100F48032002AF5D00022C3
:1008C0004FF0E0231A619A61704710B50146114B51
:1008D0004FF0E02463610023A36101232361002220
:1008E0000FE000BF4FF0E023186900F001031BB1D7
:1008F00000F48033002BF5D0064B4FF0E024636109
:10090000521C8A42EDD300234FF0E0242361A361FF
:1009100010BD0000405489002DE9F041EB480078FB
:10092000EA4949780844E94989780844E749C97897
:100930000844E64909790844E44949790844E34907
:1009400089790844E149C9790844E049097A0844A9
:10095000DE49497A0844C0B2DC49897A88427DD1AF
:10096000DA484078512804D052285CD0532859D115
:10097000B6E0D6498978D54AD27841EA022108B250
:1009800003F015FF06460022D14B03F08BFD044611
:100990000022D04B03F05EFFCF4AC2E90201CB49EF
:1009A0000979CA4A527941EA022108B203F0FFFEEE
:1009B00006460022C64B03F075FD04460022C54BD7
:1009C00003F048FFC44A03C2C0498979BF4AD279BB
:1009D00041EA022108B203F0EAFE06460022BC4BBF
:1009E00003F060FD04460022BA4B03F033FFBA4A1D
:1009F000C2E90401B549097AB44A527A41EA0221AE
:100A000008B203F0D4FE06460022B44B03F04AFDC0
:100A100004460022B24B03F091FCB24A03C201200B
:100A2000B1490870B7E0A9498978A84AD27841EA63
:100A3000022108B203F0BBFE06460022A44B03F0DD
:100A400031FD04460022A94B03F004FFA24AC2E98B
:100A500008019E4909799D4A527900E017E141EA6F
:100A6000022108B203F0A3FE06460022984B03F0D1
:100A700019FD044600229D4B03F0ECFE964AC2E9A4
:100A8000060192498979914AD27941EA022108B254
:100A900003F08DFE064600228D4B03F003FD044655
:100AA0000022924B03F0D6FE8B4AC2E90A01874925
:100AB000097A864A527A41EA022108B203F077FEA7
:100AC00006460022854B03F0EDFC04460022844BD1
:100AD00003F034FC834A03C20120834948705AE082
:100AE0007A498978794AD27841EA022108B203F03A
:100AF0005EFE06460022764B03F0D4FC044600223C
:100B00007B4B03F0A7FE744AC2E90E016F490979D5
:100B10006E4A527941EA022108B203F048FE0646C5
:100B200000226B4B03F0BEFC04460022704B03F026
:100B300091FE694AC2E90C0164498979634AD27914
:100B400041EA022108B203F032FE06460022604B61
:100B500003F0A8FC04460022654B03F07BFE5E4ACE
:100B6000C2E910015949097A584A527A41EA0221E8
:100B700008B203F01CFE06460022584B03F092FC1C
:100B800004460022564B03F0D9FB564A03C201200B
:100B90005549887000BF00BF56480078012821D110
:100BA00051480078012805D14B4903C981F0004123
:100BB000494A03C24C484078012807D14649D1E947
:100BC000060181F00041444AC2E9060146488078A6
:100BD000012807D14049D1E90C0181F000413E4A8A
:100BE000C2E90C0143484078012823D13E480078EF
:100BF000012807D13849D1E9020181F00041364A84
:100C0000C2E9020138484078012807D13249D1E9C8
:100C1000080181F000423049C1E908023248807879
:100C2000012807D12C49D1E90E0181F000422A495F
:100C3000C1E90E022F488078012823D12A48007884
:100C4000012807D12449D1E9040181F00041224A59
:100C5000C2E9040124484078012807D11E49D1E99E
:100C60000A0181F000421C49C1E90A021E4880784D
:100C7000012807D11849D1E9100181F00042164935
:100C8000C1E9100200201849087048708870BDE85A
:100C9000F08110B5012803D10123164C237002E026
:100CA0000023144C2370012903D10123114C6370DC
:100CB00002E000230F4C6370012A03D101230D4C85
:100CC000A37002E000230B4CA37010BDA000002015
:100CD0000000E04000003040580000200040754017
:100CE00000204240080000201300002000409F40E8
:100CF00000806640100000201FB50121022000F096
:100D00009CFF01211E4801F0F9FE42F20F70ADF880
:100D100008004720ADF804000020ADF80A00ADF847
:100D2000060001A9164801F0B3F801221146144843
:100D300001F025FC0121124801F006FC4FF4C060CF
:100D400000F0E4FB1D208DF8000000208DF801006C
:100D500001208DF802008DF80300684600F0DBFBEF
:100D60001FBD10B50121064801F0C8FE012005494C
:100D7000087005480088401C0349088010BD000029
:100D80000004004018000020160000202DE9F04764
:100D9000FE490988491CFD4A121D1288521C01FB9C
:100DA00002F003F004FD80460022F94B03F07AFBC9
:100DB000064632460B460020F64903F073FB044614
:100DC0000123F24A283AFFF7AEFCF0490988491C92
:100DD000EE4A121D1288521C01FB02F003F0E7FCE0
:100DE00080460022EA4B03F05DFB064632460B4686
:100DF0000020E84903F056FB04460223E34A283A60
:100E0000FFF791FCE1490988491CE04A121D12884C
:100E1000521C01FB02F003F0CAFC06460022DC4B28
:100E200003F040FB044622460B460020D94903F05C
:100E300039FB80460323D54A283AFFF774FCD3498F
:100E40000988491CD14A121D1288521C01FB02F06C
:100E500003F0ADFC06460022CD4B03F023FB044615
:100E600022460B460020CB4903F01CFB804604239E
:100E7000C64A283AFFF757FC0220FFF726FDBDE8D7
:100E8000F0872DE9F047C1490988491CBF4A121D66
:100E90001288521C01FB02F003F089FC80460022FC
:100EA000BB4B03F0FFFA064632460B4600204FF0DC
:100EB000804103F0F7FA04460123B44A283AFFF7C9
:100EC00032FCB2490988491CB04A121D1288521CD2
:100ED00001FB02F003F06BFC80460022AC4B03F0F8
:100EE000E1FA064632460B4600204FF0804103F0FF
:100EF000D9FA04460223A54A283AFFF714FCA3496D
:100F00000988491CA14A121D1288521C01FB02F0DB
:100F100003F04DFC804600229D4B03F0C3FA0646C9
:100F200032460B4600204FF0804103F0BBFA0446E6
:100F30000323964A283AFFF7F6FB94490988491C8F
:100F4000924A121D1288521C01FB02F003F02FFC82
:100F5000064600228E4B03F0A5FA804642460B4619
:100F600000204FF0804103F09DFA04460423874A95
:100F7000283AFFF7D8FB0320FFF7A7FC834909882D
:100F8000491C824A121D1288521C01FB02F003F018
:100F90000EFC064600227E4B03F084FA04462246ED
:100FA0000B4600207B4903F07DFA80460123774AF7
:100FB000283AFFF7B8FB75490988491C734A121D86
:100FC0001288521C01FB02F003F0F1FB8046002264
:100FD0006F4B03F067FA064632460B4600206D4918
:100FE00003F060FA04460223684A283AFFF79BFBA5
:100FF00066490988491C654A121D1288521C01FB6A
:1010000002F003F0D4FB06460022614B03F04AFADB
:10101000044622460B4600205E4903F043FA804610
:1010200003235A4A283AFFF77EFB58490988491C8E
:10103000564A121D1288521C01FB02F003F0B7FB46
:1010400006460022524B03F02DFA044622460B4678
:101050000020504903F026FA804604234B4A283AE0
:10106000FFF761FB0220FFF730FCBDE8F0872DE9B8
:10107000F04F09AC94E8F003DFF81CC1CCE90001A3
:10108000CCE90223CCE90445CCE90667CCE9088920
:10109000DFF804B1DDE90FACCBE90AACDDE911AC56
:1010A000CBE90CACDDE913CACBE90ECADDE915AC1E
:1010B000CBE910AC4FF0000ADFF8E0B0CBF800A0AD
:1010C000CBF804A0CBF808A0CBF80CA0CBF810A06C
:1010D000CBF814A0BDE8F08F2DE9FF5FFFF71CFCF3
:1010E0002F482E49D0E90C43D1E900612246304611
:1010F00003F0E4FC2B4A03C229492848D1E90E43F6
:101100002246D0E90261304603F0D8FC254AC2E904
:10111000020123492148D1E910432246D0E9046164
:10112000304603F0CBFC1F4AC2E904011046D0E967
:1011300000431D482246D0E90061304603F0FEF826
:10114000194A03C21749D1E902431749D1E902619B
:101150002246304603F0F2F8134AC2E90201114870
:101160001146D0E90443D1E904612246304603F038
:10117000E5F80D4AC2E90401104600220B4BD0E904
:101180000041204603F064FC18D211E0280800401A
:101190000094F1400000F03FB0000020F800002073
:1011A00058000020280100201001002000407F404E
:1011B0000021CC48CC4AC2E900100DE0CA49D1E96F
:1011C00000410022C94B204603F008FB04D2002155
:1011D000C648C54AC2E90010C349D1E9024100220C
:1011E000C04B204603F034FC05D20021BD48BE4A66
:1011F000C2E902100DE0BC480022BC4BD0E902411C
:10120000204603F0EBFA04D20021B848B64AC2E9FE
:101210000210B549D1E904410022B24B204603F047
:1012200017FC05D20021AF48AF4AC2E904100DE017
:10123000AD480022AD4BD0E90441204603F0CEFA80
:1012400004D20021A948A84AC2E90410A849D1E95A
:10125000064322460020014603F030FCA54A03C2A3
:10126000A349D1E9084322460020014603F026FCA9
:10127000A04AC2E902019E49D1E90A432246002060
:10128000014603F01BFC9B4AC2E9040110469A493F
:10129000D0E90043D1E904612246304603F0DAFA8E
:1012A000CDE902019048D0E9004393482246D0E9B5
:1012B0000261304603F0CEFA804689468F48D0E975
:1012C00000438D482246D0E90061304603F0C2FA5F
:1012D000824642464B4603F031F8CDE90001DDE994
:1012E000022303F02BF8864A03C28249D1E9024364
:1012F0008149D1E90A612246304603F0ABFACDE9D3
:1013000002017948D0E902437B482246D0E90861CE
:10131000304603F09FFA8046894678497648D1E9FD
:1013200002432246D0E90661304603F093FA824632
:1013300042464B4603F002F8CDE90001DDE9022305
:1013400002F0FCFF6E4AC2E902016A486A49D0E92C
:101350000443D1E910612246304603F07BFACDE91F
:10136000020161496448D1E904432246D0E90E6193
:10137000304603F06FFA8046894660485E49D0E9FE
:101380000443D1E90C612246304603F063FA8246F9
:1013900042464B4602F0D2FFCDE90001DDE90223CF
:1013A00002F0CCFF564AC2E904015648006803F037
:1013B000FEF904465248D0E900633246204602F066
:1013C000BDFF82464E48D0E902432246504602F015
:1013D000B5FF80464A48D0E904432246404603F020
:1013E0006DFBCDE9000103F0B5F980B20122464959
:1013F0000390FFF7EBF94348006803F0D8F904467F
:101400003F48D0E900633246204603F057FB804650
:1014100089463B49D1E902432246494602F08EFF04
:1014200082463748D0E904432246504602F086FF00
:10143000CDE9000103F08EF980B202223249039017
:10144000FFF7C4F92F48006803F0B1F980462C4833
:10145000D0E900633246404603F030FB044628489A
:10146000D0E902633246204603F028FBCDE90001B3
:101470002349D1E904432246019903F01FFB824628
:1014800003F068F980B203221F490390FFF79EF929
:101490001C48006803F08BF904461948D0E9006342
:1014A0003246204602F04AFF82468B461449D1E973
:1014B00002432246594603F001FB80461048D0E91A
:1014C00004432246404602F039FFCDE9000103F013
:1014D00041F980B204220C490390FFF777F9BDE887
:1014E000FF9F000000407F401001002000407FC0AF
:1014F0005800002040010020B000002028010020FA
:10150000580100201C000020000800403149014320
:10151000314A1160704770B5002100230F22C47852
:1015200004B32D4C246804F4E064C4F5E064210A9B
:10153000C1F10403CA40447804FA03F184781440EA
:1015400021430901254C0678A155047804F01F05B4
:101550000124AC4005786D11AD0005F1E025C5F81A
:10156000004109E0047804F01F050124AC401C4D43
:101570000678761145F8264070BD1A4A0A400243A3
:10158000154B1B1F1A60704739B1134A121D1268A0
:101590000243114B1B1D1A6006E00F4A121D126810
:1015A00082430D4B1B1D1A607047042808D14FF071
:1015B000E021096941F004014FF0E022116107E0E8
:1015C0004FF0E021096921F004014FF0E0221161A0
:1015D000704700000000FA050CED00E000E400E0B8
:1015E00080E100E080FFFF1F10B50446CC48844234
:1015F00008D10121042000F02DFB0021042000F07F
:1016000029FB46E0C748844208D10121082000F0A8
:1016100021FB0021082000F01DFB3AE0C248844273
:1016200008D10121102000F015FB0021102000F04E
:1016300011FB2EE0BD48844208D10121202000F09A
:1016400009FB0021202000F005FB22E0B84884427D
:1016500008D10121402000F0FDFA0021402000F0D7
:10166000F9FA16E0B348844208D10121802000F045
:10167000F1FA0021802000F0EDFA0AE0AE48844241
:1016800007D10121801500F0E5FA0021A01500F036
:10169000E1FA10BD10B50121084600F0DBFA002187
:1016A000012000F0D7FA10BD2DE9F04102460025D7
:1016B0000026002000230024002791F803C00CF02E
:1016C0000F0591F803C00CF0100CBCF1000F03D013
:1016D00091F802C04CEA050591F800C0BCF1000F7A
:1016E00031D0146800202BE04FF0010C0CFA00F30D
:1016F000B1F800C00CEA03069E4220D183004FF0EF
:101700000F0C0CFA03F7BC4305FA03FC4CEA040483
:1017100091F803C0BCF1280F06D14FF0010C0CFA70
:1017200000FCC2F814C00AE091F803C0BCF1480FF5
:1017300005D14FF0010C0CFA00FCC2F810C0401C9F
:101740000828D1D31460B1F800C0BCF1FF0F34DD1C
:10175000546800202EE000F1080C4FF0010808FA50
:101760000CF3B1F800C00CEA03069E4221D18300BD
:101770004FF00F0C0CFA03F7BC4305FA03FC4CEADC
:10178000040491F803C0BCF1280F05D100F1080C46
:1017900008FA0CF8C2F8148091F803C0BCF1480FA5
:1017A00007D100F1080C4FF0010808FA0CF8C2F854
:1017B0001080401C0828CED35460BDE8F0814FF65D
:1017C000FF710180022181700421C17070470246BF
:1017D000002093680B400BB1012000E0002070470F
:1017E0000146886880B2704702460020D3680B40EB
:1017F0000BB1012000E0002070470146C86880B2AC
:10180000704701617047416170470AB1016100E0B2
:1018100041617047C16070474FF480320A43826172
:101820008161826182698269704702460020434B70
:1018300018684FF68073184040EA021008433F4B87
:10184000186070473E49C8617047F0B50A460023EA
:1018500000240021002500F00046B6F1004F02D11F
:10186000364EF16901E0354E7168C0F3034583B22D
:1018700000F44016B6F5401F08D121F070612F4EDC
:10188000766826F070662D4F7E6012E000F48016B8
:10189000B6F5801F06D1032606FA05F4A14341F0F0
:1018A000706106E0460D360103FA06F6B14341F0D9
:1018B000706122B1460D360103FA06F6314300F09D
:1018C0000046B6F1004F02D11C4EF16101E01B4E03
:1018D0007160F0BD30B500228B071C0F0F2303FA97
:1018E00004F2164B08338C1053F824309343134CF6
:1018F00008348D1044F8253023468C1053F82430DA
:101900008C07240F00FA04F423430C4C08348D1088
:1019100044F8253030BD0A49DC31086070470000CA
:1019200000080140000C014000100140001401407B
:1019300000180140001C014000200140000001404F
:1019400000002042DF48006840F00100DD490860E7
:1019500008464068DC490840DA49486008460068A3
:10196000DA490840D74908600846006820F480201A
:1019700008600846406820F4FE0048604FF41F00ED
:1019800088607047CF49096821F48031CD4A1160E1
:101990001146096821F480211160B0F5803F03D021
:1019A000B0F5802F0ED106E0C649096841F48031B8
:1019B000C44A116007E0C349096841F4A021C14A43
:1019C000116000E000BF00BF704710B50146002263
:1019D000002300204A11012A02D1BA4C236806E0F4
:1019E000022A02D1B74C236A01E0B64C636A01F0C7
:1019F0001F02012494401C400CB1012000E0002093
:101A000010BD38B5002000900024002500BF312013
:101A1000FFF7DBFF05460098401C00900098B0F5EA
:101A2000A06F01D0002DF2D03120FFF7CEFF08B11A
:101A3000012400E00024204638BD01460020A14AD0
:101A4000106820F0F80040EAC10010607047A0491B
:101A500008607047024600209A4B586820F47C10BA
:101A600042EA01031843974B58607047984908664B
:101A7000704701460020934A506820F00300084355
:101A8000506070478F48406800F00C007047014676
:101A900000208C4A506820F0F000084350607047E6
:101AA00001460020874A506820F4E06008435060F7
:101AB000704701460020834A506820F4605040EA95
:101AC000C1005060704729B17E4A527A02437D4B73
:101AD0005A7204E07B4A527A82437A4B5A727047B8
:101AE0007B49D8310860704701460020754A50682C
:101AF00020F440400843506070470021714A203272
:101B00001170704A82F82010012802D004280AD1EE
:101B100004E001216B4A2032117005E00521694A79
:101B20002032117000E000BF00BF704769490860B3
:101B300070476449096A0143624A11627047654906
:101B400044390860704730B500210022002400238A
:101B50005C4D6D6805F00C0121B1042905D0082900
:101B600023D105E05C4D056022E05B4D05601FE080
:101B7000544D6D6805F47012524D6D6805F4803453
:101B8000022505EB92421CB9544D554305600BE00C
:101B90004C4D6D6805F400351DB1504D5543056041
:101BA00002E04D4D5543056002E04B4D056000BF1E
:101BB00000BF444D6D6805F0F0010909484D6B5CAC
:101BC0000568DD4045603F4D6D6805F4E061090A38
:101BD000434D6B5C4568DD4085603A4D6D6805F4AA
:101BE0006051C90A3E4D6B5C4568DD40C560354DAE
:101BF0006D6805F44041890B3A4D6B5CC568B5FBD7
:101C0000F3F5056130BD29B12E4A526902432D4BCF
:101C10005A6104E02B4A526982432A4B5A61704749
:101C200029B1284A92690243264B9A6104E0254A69
:101C300092698243234B9A61704729B1214AD26944
:101C40000243204BDA6104E01E4AD26982431D4BF5
:101C5000DA61704729B11B4AD2680243194BDA6036
:101C600004E0184AD2688243164BDA60704729B103
:101C7000144A12690243134B1A6104E0114A1269B3
:101C80008243104B1A61704712494039086070470F
:101C90000F49C86470470B49C87170470948406ACA
:101CA00040F0807007494862704701460020054AAD
:101CB00092680A400AB1012000E000207047014903
:101CC00088727047001002400000FFF8FFFFF6FE28
:101CD000000042428004424200127A0000093D00A6
:101CE000200000203000002010B50446FE48844249
:101CF00008D10121C014FFF7ADFF0021E014FFF768
:101D0000A9FFC4E0B4F1804F08D101210846FFF7D4
:101D1000AEFF00210120FFF7AAFFB8E0F34884429C
:101D200008D101210220FFF7A2FF00210220FFF7C6
:101D30009EFFACE0EE48844208D101210420FFF769
:101D400096FF00210420FFF792FFA0E0E9488442BB
:101D500008D101210820FFF78AFF00210820FFF7A2
:101D600086FF94E0E448844208D101211020FFF767
:101D70007EFF00211020FFF77AFF88E0DF488442D1
:101D800008D101212020FFF772FF00212020FFF75A
:101D90006EFF7CE0DA48844208D101214014FFF74D
:101DA00059FF00216014FFF755FF70E0D5488442C9
:101DB00009D10121C804FFF74DFF00214FF4002095
:101DC000FFF748FF63E0D048844209D101210805AC
:101DD000FFF740FF00214FF48010FFF73BFF56E074
:101DE000CA48844209D101214805FFF733FF002189
:101DF0004FF40010FFF72EFF49E0C548844208D198
:101E000001214020FFF733FF00214020FFF72FFF83
:101E10003DE0C048844208D101218020FFF727FF20
:101E200000218020FFF723FF31E0BB48844208D126
:101E300001218015FFF71BFF0021A015FFF717FFF9
:101E400025E0B648844209D101210804FFF702FFCA
:101E500000214FF48030FFF7FDFE18E0B0488442C7
:101E600009D101214804FFF7F5FE00214FF40030AD
:101E7000FFF7F0FE0BE0AB48844208D10121880453
:101E8000FFF7E8FE00214FF48020FFF7E3FE10BDCE
:101E900000220288944B98420ED0994B98420BD066
:101EA000B0F1804F08D0914B984205D0904B9842AA
:101EB00002D0904B984204D14FF68F731A404B8852
:101EC0001A438D4B984207D08C4B984204D04FF662
:101ED000FF431A40CB881A4302808B8883850B8886
:101EE0000385814B98420BD0854B984208D08B4B91
:101EF000984205D08A4B984202D08A4B984201D131
:101F00000B7A038601238382704770B50024002278
:101F10000023058C4FF6FE7635400584028C8388BD
:101F2000048B4FF68F752C40B51E2C400D882C432A
:101F3000751E2A400D892A434D882A436A4DA842BE
:101F40000BD06F4DA84208D0744DA84205D0744DF7
:101F5000A84202D0734DA84213D14FF6F7752A401C
:101F60004D892A434FF6FB752A408D882A434FF648
:101F7000FF652B404FF6FF552B408D892B43CD89B4
:101F80002B4383800483CD888586028470BD70B521
:101F9000002400220023058C4FF6EF76354005849F
:101FA000028C8388048B48F6FF752C404FF6FF4562
:101FB0002C400D884FF6FF7606EA05252C434FF698
:101FC000DF752A400D8906EA05152A434D8806EA81
:101FD00005152A43444DA84202D0494DA8421DD1BF
:101FE0004FF67F752A404D894FF6FF7606EA0515B4
:101FF0002A434FF6BF752A408D8806EA05152A4305
:102000004FF6FF352B404FF2FF752B408D8906EAC6
:1020100085052B43CD8906EA85052B438380048300
:10202000CD880587028470BD70B50024002200238E
:10203000058C4FF6FF6635400584028C8388848BBF
:102040004FF68F752C404FF6FC752C400D882C43B5
:102050004FF6FF552A400D894FF6FF7606EA052513
:102060002A434D8806EA05252A431F4DA84202D07F
:10207000234DA8421DD14FF2FF752A404D894FF6DE
:10208000FF7606EA05252A434FF6FF352A408D885C
:1020900006EA05252A434EF6FF752B404DF6FF75DF
:1020A0002B408D8906EA05152B43CD8906EA0515D7
:1020B0002B4383808483CD888587028470BD70B56F
:1020C000002200230024058C4EF6FF76354005845F
:1020D000038C8488828B48F6FF752A404FF6FF45B3
:1020E0002A400D8820E00000002C01400004004040
:1020F00000080040000C00400010004000140040A8
:1021000000340140004C01400050014000540140A7
:1021100000180040001C004000200040004001402A
:1021200000440140004801404FF6FF7606EA0525CD
:102130002A434DF6FF752B400D8906EA05352B43E2
:102140004D8806EA05352B43FA4DA84202D0FA4DD8
:10215000A84208D14BF6FF752C408D894FF6FF76CB
:1021600006EA85152C4384808283CD88A0F84050F0
:10217000038470BD828B4FF2FF331A408283828BBF
:102180004FF6FF7303EA01231A4382837047F0B5C9
:102190000C461546002200210026078C4EF6FF7CD7
:1021A00007EA0C070784828B018C4FF6FF7707EA5A
:1021B000043640F6FF473A404FF6FF7707EA052717
:1021C0003A434FF6FF7707EA03373A43D94FB8420D
:1021D0000ED0D94FB8420BD0B0F1804F08D0D74FB6
:1021E000B84205D0D64FB84202D0D64FB84206D139
:1021F0004DF6FF77394046F48057394305E047F6FE
:10220000FF57394044F48057394382830184F0BD3D
:10221000828B4FF6F3731A408283828B0A43828348
:102220007047F0B50C461546002200210026078CA9
:102230004FF6FF6C07EA0C070784828B018C4FF680
:10224000FF7707EA04264FF60C773A404FF6FF7700
:1022500007EA03172F433A43B64FB8420ED0B64FA2
:10226000B8420BD0B0F1804F08D0B44FB84205D07F
:10227000B34FB84202D0B34FB84206D14FF6FF5722
:10228000394046F48077394305E04FF2FF57394033
:1022900044F48077394382830184F0BD028B4FF28E
:1022A000FF331A400283028B4FF6FF7303EA0123C8
:1022B0001A4302837047F0B50C46154600220021F0
:1022C0000026078C4FF6EF7C07EA0C070784028B89
:1022D000018C4FF6FF7707EA041640F6FF473A40B5
:1022E0004FF6FF7707EA03373A434FF6FF7707EADF
:1022F00005273A438F4FB8420ED08F4FB8420BD0CC
:10230000B0F1804F08D08D4FB84205D08C4FB84205
:1023100002D08C4FB84206D14FF6DF77394046F0F5
:102320001007394305E04FF65F77394044F0100756
:10233000394302830184F0BD028B4FF6F3731A40D8
:102340000283028B0A4302837047F0B50C461546A0
:1023500000220021068C4FF6FE773E400684028B59
:10236000018C4FF60C7632407E1C06EA03162E4393
:102370003243704EB0420ED06F4EB0420BD0B0F12F
:10238000804F08D06D4EB04205D06D4EB04202D0A5
:102390006C4EB04206D14FF6FD76314044F0010656
:1023A000314305E04FF6F576314044F00106314304
:1023B00002830184F0BD70B505460C465D48854238
:1023C0000ED05D4885420BD0B5F1804F08D05B48F8
:1023D000854205D05A48854202D05A48854200D1EC
:1023E00000E000BF208850B92389A2886188284670
:1023F000FFF7ABFFE1882846FFF79EFF25E0208826
:1024000004280AD12389A28861882846FFF753FF50
:10241000E1882846FFF742FF17E0208808280AD104
:102420002389A28861882846FFF7FBFEE1882846B9
:10243000FFF7EEFE09E02389A28861882846FFF7AE
:10244000A6FEE1882846FFF795FE70BD2DE9F04114
:1024500005460C4600260127608808B9022600E0E0
:102460000026A088012801D1022700E0012720884A
:10247000A0B92389A28861882846FFF766FFE18812
:102480002846FFF759FF23893A4631462846FFF789
:1024900012FFE1882846FFF701FF13E02389A28895
:1024A00061882846FFF707FFE1882846FFF7F6FE18
:1024B00023893A4631462846FFF747FFE1882846F8
:1024C000FFF73AFFBDE8F0810A884B881A438B88F2
:1024D0001A43CB881A430B891A434B891A438B89B9
:1024E0001A43A0F8442070474FF6FF718180002105
:1024F0000180C180418001727047002101804180CC
:102500008180C180018141818181C1817047002129
:1025100001804180012181800021C18001817047BB
:102520000021018041808180C180018141818181C0
:1025300070470000002C01400034014000040040BE
:1025400000080040000C004021B1028842F0010266
:10255000028004E002884FF6FE731A400280704742
:1025600031B1B0F8442042F40042A0F8442005E024
:10257000B0F84420C2F30E02A0F8442070471AB10C
:1025800083890B43838102E083898B438381704776
:102590008182704741EA0203A0F8483070471AB1BF
:1025A00083890B43838102E083898B438381704756
:1025B00001894FF6F8721140018170470A460021E7
:1025C00001894FF68F73194011430181704730B56F
:1025D00004460D4629462046FFF7F0FF208940F0CB
:1025E0000700208130BD2DE9F04104460D46164616
:1025F0001F46602D06D13B46012231462046FFF79B
:102600005AFE05E03B46012231462046FFF79DFE7B
:1026100029462046FFF7D2FF208940F0070020819D
:10262000BDE8F08130B50C4600210189C9B24FF6F2
:10263000FF7505EA0325154325432943018130BD74
:102640002DE9F04105460E461746984600244346BC
:102650003A4631462846FFF7E5FF2C894FF6F870D9
:10266000044044F007044FF68F70044044F07004B7
:102670002C81BDE8F081F0B504460D4616461F4694
:102680003B46324629462046FFF7CCFF208940F4DE
:1026900080402081F0BD0185828270470A4600217A
:1026A00001884FF68F731940114301807047F0B5D0
:1026B0000C4615461E460021002200230189028B8C
:1026C000038C4FF6F877394021434FF6FC473A40E8
:1026D00040F201173A434FF6DD773B404FF6FF7764
:1026E00007EA06172F433B43018102830384F0BDB1
:1026F0000A460021018B4FF68F7319401143018365
:1027000070470A460021018B48F6FF7319404FF6C7
:10271000FF7303EA02231943018370470A4600212D
:10272000818B4FF68F7319401143818370470A469E
:102730000021818B48F6FF7319404FF6FF7303EABF
:10274000022319438183704721B1028842F080023D
:10275000028004E002884FF67F731A4002807047BF
:1027600021B1828842F00402828004E082884FF620
:10277000FB731A408280704721B1828842F00802C0
:10278000828004E082884FF6F7731A408280704797
:1027900021B1828842F00102828004E082884FF6F3
:1027A000FE731A40828070470A460021018B4FF663
:1027B000F77319401143018370470A460021018BCA
:1027C0004FF2FF7319404FF6FF7303EA02231943D8
:1027D000018370470A460021818B4FF6F773194039
:1027E0001143818370470A460021818B4FF2FF73AA
:1027F00019404FF6FF7303EA0223194381837047A0
:102800000A460021018B4FF6FB73194011430183E7
:1028100070470A460021018B4FF6FF3319404FF6EF
:10282000FF7303EA02231943018370470A4600211C
:10283000818B4FF6FB7319401143818370470A4621
:102840000021818B4FF6FF3319404FF6FF7303EAE7
:1028500002231943818370470A460021018B4FF6FA
:102860007F7319401143018370470A460021018B91
:10287000C1F30E014FF6FF7303EA022319430183EC
:1028800070470A460021818B4FF67F731940114330
:10289000818370470A460021818BC1F30E014FF6F8
:1028A000FF7303EA02231943818370470A4600211C
:1028B000018C4FF6FD7319401143018470470A469D
:1028C0000021018C4FF6F7731940114301847047C2
:1028D0000A460021018C4FF6DF7319404FF6FF7353
:1028E00003EA02131943018470470A460021018C50
:1028F0004FF67F7319404FF6FF7303EA0213194333
:10290000018470470A460021018C4FF6FF5319409D
:102910004FF6FF7303EA02231943018470470A4606
:102920000021018C4FF2FF7319404FF6FF7303EA49
:1029300002231943018470470A460021018C4DF699
:10294000FF7319404FF6FF7303EA02331943018402
:10295000704730B5002301248C40A3B2048C9C4303
:102960000484048C02FA01F5ADB22C43048430BD1A
:1029700030B5002304248C40A3B2048C9C4304840F
:10298000048C02FA01F5ADB22C43048430BD70B55D
:102990000346002000241846183001258D40ACB2B3
:1029A0001D8CA5431D8409B1082909D100EB6100E4
:1029B000056825F0700505600568154305600EE0A3
:1029C0000D1FC5F34E052844056825F4E045056054
:1029D00005684FF6FF7606EA02263543056070BDAE
:1029E00021B1028842F00202028004E002884FF620
:1029F000FD731A400280704721B1028842F0040240
:102A0000028004E002884FF6FB731A400280704790
:102A100021B1828842F08002828004E082884FF6F1
:102A20007F731A408280704702884FF6F7731A400E
:102A3000028002880A430280704782884FF68F73B3
:102A40001A40828082880A438280704702894FF64A
:102A5000F8731A40028102890A4302817047028991
:102A60004FF67F731A40028102890A430281704740
:102A700081847047818570478186704701877047E0
:102A800081877047A0F84010704702884FF6FF43D7
:102A90001A40028002880A43028070470146888EED
:102AA00070470146088F70470146888F704701467E
:102AB000B1F8400070470146888C70470146088D88
:102AC000704702460020138A0B400BB1012000E042
:102AD00000207047CA430282704730B5024600208A
:102AE00000230024158A05EA0103958905EA0104FB
:102AF00013B10CB1012000E0002030BDCA430282B6
:102B0000704700000948804709480047FEE7FEE794
:102B1000FEE7FEE7FEE7FEE7FEE7FEE7FEE7FEE78D
:102B200004480549054A064B70470000232C00085D
:102B3000ED000008D0010020D0070020D0030020C5
:102B4000D00300200CB50020019000906C48006874
:102B500040F480306A49086000BF6948006800F4AA
:102B6000003000900198401C0190009818B901981D
:102B7000B0F5A06FF1D16248006800F4003010B1E8
:102B80000120009001E0002000900098012843D12E
:102B90005C48006840F010005A4908600846006828
:102BA00020F0030008600846006840F0020008605A
:102BB00053484068524948600846406848600846A3
:102BC000406840F4806048600846406820F47C100B
:102BD00048600846406840F4E810486008460068CD
:102BE00040F08070086000BF4548006800F0007049
:102BF0000028F9D04248406820F00300404948606E
:102C00000846406840F00200486000BF3C48406809
:102C100000F00C000828F9D10CBD10B5FFF792FFA9
:102C200010BD10B53648006840F001003449086016
:102C30000846406834490840314948600846006801
:102C4000324908402E4908600846006820F4802078
:102C500008600846406820F4FE0048604FF41F00FA
:102C60008860FFF7DAFF4FF000602949086010BD67
:102C700010B5002100200022214B5B6803F00C01FD
:102C800021B1042906D0082928D107E0214B224C84
:102C9000236027E01F4B204C236023E0184B5B6828
:102CA00003F47010164B5B6803F48032022303EBCD
:102CB000904022B9194B4343174C23600DE0104B51
:102CC0005B6803F4003323B1144B4343124C23607D
:102CD00003E0104B4343104C236003E00D4B0E4CBC
:102CE000236000BF00BF064B5B68C3F303130C4CAB
:102CF000E15C094B1B68CB40074C236010BD000012
:102D000000100240002002400000FFF8FFFFF6FE26
:102D100008ED00E000127A003400002000093D00B8
:102D20003800002010B50446FB48844209D1012137
:102D30008803FEF78FFF00214FF48040FEF78AFFE3
:102D400032E0F648844209D101214804FEF78FFFA2
:102D500000214FF40030FEF78AFF25E0F04884425E
:102D600009D101218804FEF782FF00214FF4802061
:102D7000FEF77DFF18E0EB48844209D10121C80429
:102D8000FEF775FF00214FF40020FEF770FF0BE007
:102D9000E548844208D101210805FEF768FF0021BB
:102DA0004FF48010FEF763FF10BD2DE9F04786B0A9
:102DB00005460E460024A24600BFA1460027B08962
:102DC00000B100BF2F462C8A4CF6FF700440F088FB
:102DD00004432C82AC894EF6F3100440B08831894C
:102DE0000843718908430443AC81AC8A4FF6FF4025
:102DF0000440B0890443AC8201A8FEF7A4FEC64893
:102E0000874202D1DDF810A001E0DDF80CA0A8890E
:102E100000F4004040B10AEBCA0000EB0A10316830
:102E20004900B0FBF1F807E00AEBCA0000EB0A101A
:102E300031688900B0FBF1F86420B8FBF0F00401C0
:102E40002009642101FB1089A88900F4004040B1E9
:102E5000322000EBC900B0FBF1F000F007000443A2
:102E600008E0322000EB09106421B0FBF1F000F023
:102E70000F0004432C8106B0BDE8F0874FF41651D3
:102E8000016000218180C18001810C2141810021EC
:102E90008181704710B502460020108A4FF2FF036F
:102EA00018400B884C8823438C882343CC882343C9
:102EB0001843108210BD0021018041808180C180B3
:102EC000704721B1828942F40052828104E08289F4
:102ED0004DF6FF731A4082817047F0B50346002417
:102EE00000260025002040F66A17B94200D100BF35
:102EF0001846C1F3421401F01F06012707FA06F530
:102F0000012C01D10C3004E0022C01D1103000E082
:102F100014301AB107682F43076002E00768AF4317
:102F20000760F0BD1AB1838A0B43838202E0838A73
:102F30008B4383827047028A4FF6F0731A400282F5
:102F4000028A0A430282704782894FF2FF731A4055
:102F5000828182890A438281704721B1828942F04D
:102F60000202828104E082894FF6FD731A40828159
:102F70007047028A4FF6DF731A400282028A0A43C0
:102F80000282704721B1028A42F48042028204E048
:102F9000028A4BF6FF731A4002827047C1F308029F
:102FA0008280704701468888C0F308007047818995
:102FB00041F0010181817047028BD2B20283028B02
:102FC00042EA012202837047028B02F47F420283AD
:102FD000028B0A430283704721B1828A42F02002A9
:102FE000828204E0828A4FF6DF731A408282704741
:102FF00021B1828A42F01002828204E0828A4FF676
:10300000EF731A408282704721B1828A42F008022F
:10301000828204E0828A4FF6F7731A4082827047F8
:1030200021B1828942F40042828103E08289C2F3A5
:103030000E028281704721B1828A42F4006282824C
:1030400004E0828A4FF2FF731A4082827047828ABC
:103050004FF6FB731A408282828A0A43828270474B
:1030600021B1828A42F00202828204E0828A4FF613
:10307000FD731A408282704702460020B1F5007F3E
:1030800000D100BF13880B400BB1012000E00020ED
:10309000704701F40072B2F5007F00D100BFCA434F
:1030A0000280704770B502460024002300250020EE
:1030B00040F66A16B14200D100BFC1F3421501F0DB
:1030C0001F03012606FA03F3012D02D1968933402E
:1030D00006E0022D02D1168A334001E0968A334081
:1030E0000C12012606FA04F41688344013B10CB110
:1030F000012000E0002070BD10B50022002340F642
:103100006A14A14200D100BF0A1201249440A3B264
:10311000DC43048010BD0000003801400044004042
:1031200000480040004C0040005000407047000044
:103130000FB4044910B503AA029800F07FFB10BC3D
:103140005DF814FB0000002070B504468569006836
:10315000C10601D5302600E02026C00707D070BD8B
:10316000D4E9012130469047206A401C20626D1E40
:10317000F6D570BD70B5044685690078C00707D1E3
:1031800070BDD4E9012120209047206A401C2062B4
:103190006D1EF6D570BD00002DE9F04106460024F5
:1031A00010687529314615A510D0AFF300800028AE
:1031B00002DA404212A507E031688A0701D511A55D
:1031C00002E0490704D510A5012401E0AFF3008017
:1031D00000210A2306F1240707E0B0FBF3F203FB0A
:1031E0001200303078541046491C0028F5D123468F
:1031F0002A463046BDE8F04100F0BCB800000000AF
:103200002D0000002B000000200000002DE9F047F9
:103210004FF0000A89460446C0F820A02046E16825
:103220008847002876D0252806D0D4E90121904788
:10323000206A401C2062F1E7E168204600268847AA
:10324000C4F81CA005460027C4F818A02A2D09D0F0
:10325000284601F056F838B304EB8708303DC8F82B
:10326000185019E059F8041B204604EB87029161BD
:10327000E1688847012F054618D1E069002820DA67
:1032800026F020061DE0D8F8180000EB800005EBC2
:1032900040003038C8F818002046E16888470546E5
:1032A00001F02FF80028EED1012F0AD02E2D08D1E1
:1032B0002046E16888477F1C0546022F46F020061D
:1032C000C4DBA069002803DA404246F00106A06191
:1032D000F00701D026F010066C2D0AD0682D08D01A
:1032E0004C2D39D06A2D35D0742D35D07A2D33D070
:1032F00016E0E1682F4620468847B84205460AD1C5
:103300006C2F27D04FF48060E16806432046884741
:10331000054605E027E06C2F1AD04FF48070064375
:103320000DB3A5F14100192802D8203546F40066F6
:103330004A462946204626604E46FCF711FF80B1DA
:1033400001280BD0F61D26F0070000F1080965E7FB
:103350004020E4E78020D7E70020D5E706F1040904
:103360005CE7284661E7206ABDE8F0877047704750
:10337000704770472DE9F0470D469946924604463E
:1033800000F124080168880604D5E06921F01001E5
:10339000216000E00120A84201DD471B00E000277A
:1033A000A1697A1902EB0900081AA0612078C00609
:1033B00002D42046FFF7C8FE002608E0D4E9012128
:1033C0001AF806009047206A401C761C20624E4581
:1033D000F4DB2078C0060AD52046FFF7B5FE06E0EC
:1033E000D4E9012130209047206A401C2062381E19
:1033F000A7F10107F4DC07E0D4E9012118F8050082
:103400009047206A401C2062281EA5F10105F3DCCC
:103410002046FFF7AFFE2078000602D50220BDE867
:10342000F0870120FBE770472DE9FF4F0C461E4651
:103430004FF0FF378BB0D2E90001DDF860800A90D1
:103440008A46C1F30A5505B93D46002108464FF0AA
:103450000000BAF1000F00F4400005DA00EB800034
:103460004FF4400101EA50004FEA9059B9F1010FC1
:1034700000DDB9460A9850EA4A000ED044F61050D2
:10348000A5F2FF3545432F14B8F1000F1ED0754249
:10349000291E1EDDC9F100021CE0B8F1010F4FF03A
:1034A000000001D0302103E0F24305E02154401C2C
:1034B000B042FBDB30460022002121540B99C1F8B9
:1034C0000880C1E900200FB0BDE8F08FBD1B6D1C66
:1034D000DEE74A4600DA694206A800F063FA06AB66
:1034E00093E8070003AB83E8070050460A9900F011
:1034F00039FB8DE80700A0F500501F3800900398B5
:10350000002D09DD42F21F014A46084403A9039039
:10351000684600F098FD08E0A0F500504A461F38C4
:1035200003A90390684600F0A2FD8DE8070000049F
:10353000000C03D04FF0FF30410800E01046B8F116
:10354000000F03D00022009215461EE0751E05D420
:1035500000F08AF9303262556D1EF9D5B34601226A
:10356000084302D000227F1C04E02078302801D1DB
:1035700000227F1E002A099786D01DE0112D07DA50
:1035800000F072F9303262556D1C50EA0102F5D13B
:10359000084302D00098C8B10EE00021681E05E083
:1035A000235C625C63542254401E491C8142F7DB59
:1035B000AB46A81B401E0990002004F80B000B9896
:1035C000099AC0F80880C0E9002B7CE711264FF06B
:1035D000000859E72DE9F04F88460446D21D22F035
:1035E000070191B0D1E90001CDE90A0100F075FEB3
:1035F00002460B98C00F01D02D2007E020688107FC
:1036000001D52B2002E0202101EAC000032A099005
:1036100001D0072A05DB03464146204600F082F927
:1036200009E12078800601D5E06900E00620B8F1C4
:10363000650F814606D0B8F1660F18D0B8F1670F54
:1036400070D131E00020B9F1110F009001DB11239E
:1036500001E009F101030AAA01A90CA8FFF7E4FEA1
:10366000DDE90C70002609F10105834647E00120E1
:103670004B4600904FF000470AAA01A90CA8FFF79B
:10368000D3FEDDE90DB00C995D46002610B909F1B5
:1036900001000D18B9EB050003D4C0F1FF3609F1A4
:1036A0000105A5EB09002BE0B9F1010F01DA4FF09C
:1036B00001090020B9F1110F0090484601DD1123E6
:1036C00000E003460AAA01A90CA8FFF7ADFEDDE958
:1036D0000C704D4600268346207800070AD4AB457F
:1036E00000DA5D4601A8012D04DD411911F8011C25
:1036F000302907D04F4502DA17F1040F04DA012010
:1037000082460FE06D1EEEE7002F02DCED1B3E440B
:1037100003E0781CA84200DD7D1CB81B00F1010A03
:103720004FF000472078000703D4AA4501DB4FF093
:10373000FF3A0021B7F1004F0DF143088DF8431017
:1037400022D002202B23002F01DA7F422D234FF0BD
:103750000A0C011EA0F1010000DC47B197FBFCF14F
:103760000CFB11720F46303208F8012DF1E7A8F179
:10377000010003702188090501D5452100E065217C
:10378000A0F1010800F8011C09980FA9A1EB080796
:10379000FF1D00B10120411901EBEA70A169384415
:1037A000081A401EA0612078C00602D42046FFF708
:1037B000CBFC099828B1D4E901219047206A401C2C
:1037C00020622078C00622D52046FFF7BDFC1EE00F
:1037D000002E04DBB34502DD01A8805D00E030204F
:1037E000D4E901219047206A401C2062761CAAF18E
:1037F00001005FEA000A0AD100F032F8C0680168EF
:10380000405CD4E901219047206A401C2062281EB8
:10381000A5F10105DCDC07E0D4E9012118F8010B72
:103820009047206A401C2062381EA7F10107F3DC94
:103830002046FFF79FFC022011B045E6074B70B50C
:103840000D467B4400F05BF80446284600F016F96C
:1038500010B14FF0FF3070BD204670BDC1CAFFFFF0
:10386000004870479001002030B5B0F10A024FEADD
:10387000900E71F100034EEA817EB0EB0E0061EB19
:1038800091014FEA101E4EEA017E10EB0E0041EB53
:1038900011114FEA102E4EEA016E10EB0E0041EBB3
:1038A00011214FEA104E4EEA014E10EB0E0041EB93
:1038B0001141401841F100014FEAD00040EA417047
:1038C0004FEAD10110EB80054FEA810444EA90747D
:1038D00044EB01046D1944EB0404521BA3414FF067
:1038E000000348BF0A3200D530BD401C41F1000141
:1038F00030BD000001694A1C02610878704700B5BC
:103900008FB0CDE901310021059105497944CDE918
:10391000031011466846FFF779FC0FB000BD0000A8
:10392000E5FFFFFF2DE9F0411F460446032601682D
:10393000072A01F4006004DB08B116A505E016A50E
:1039400003E008B115A500E015A521F010002060E6
:10395000A069C01EA0610FB1401EA0612046FFF704
:10396000F3FB4FB1D4E9012138469047206A401C4F
:103970002062C01C206206E0206AFAE7D4E9012137
:1039800015F8010B9047761EF8D22046FFF7F2FBA0
:10399000BDE8F0814E414E006E616E00494E46001A
:1039A000696E66002DE9F047814616468AB03248B6
:1039B00078440DC88DE80D002F487844801C03AC76
:1039C0000DC884E80D0041F69B303722014491FB7D
:1039D000F2F0A0F1800502FB10141B3C02D56442FA
:1039E000012000E00020DFF890A080460027FA4484
:1039F000AAF1BA0A0DE0E00709D03246684607EBA3
:103A000047010AEB810100F032FB8DE807006410EA
:103A10007F1C002CEFD1184F7F44A83F18E0E80727
:103A200014D007EB04100DF1180A90E80E008AE894
:103A30000E00C068F04201D198190890324606A9DC
:103A400003A800F014FB03AB83E807006D10641CAF
:103A5000002DE4D132466946B8F1000F03A802D028
:103A600000F0F1FA01E000F002FBC9E90001C9F839
:103A700008200AB0BDE8F0875C130000007B00F06E
:103A80008000704700487047700100207546FFF7BE
:103A9000F9FFAE4605006946534620F0070085460B
:103AA00018B020B5FFF73CF8BDE820404FF0000605
:103AB0004FF000074FF000084FF0000B21F0070116
:103AC000AC46ACE8C009ACE8C009ACE8C009ACE859
:103AD000C0098D4670470446AFF300802046FCF7CE
:103AE0005CFB00004FF0013C50F8042B51F8043B04
:103AF0009A4221D1A2EB0C03934313EACC1317D1C2
:103B000050F8042B51F8043B9A4215D1A2EB0C0358
:103B1000934313EACC130BD150F8042B51F8043B18
:103B20009A4209D1A2EB0C03934313EACC13DBD0E6
:103B30004FF00000704700BFD01A01BAB1FA81F10E
:103B400001F0180122FA01F0CB40C1F12001DBB2F3
:103B5000C0B2C01A2CFA01F3D11A914311EAC31171
:103B6000E6D170475FEA400C08BF91F0000F4FEAC2
:103B70008C234FEAC12243EA51514FEA1C5018BF2F
:103B800000F5F0404FEA300018BF41F000415FEA15
:103B90006C5C00F02980BCF1FF3F08BF40F0804022
:103BA0007047130C06BF12044FF0100C4FF0000CBE
:103BB000130E04BF12020CF1080C130F04BF120104
:103BC0000CF1040C930F04BF92000CF1020CD30F04
:103BD00004BF52000CF1010C11464FF00002A0F19D
:103BE0001F00A0EB0C00704711F0004F08BF70479A
:103BF00031F000413FF4D5AF0B0C06BF09044FF084
:103C0000100C4FF0000C0B0E04BF09020CF1080C55
:103C10000B0F04BF09010CF1040C8B0F04BF8900CA
:103C20000CF1020CCB0F04BF49000CF1010CCCF1DC
:103C30002003A0EB0C0022FA03F302FA0CF241EA93
:103C4000030100F10100704720F07F4C80EA03007F
:103C500023F07F47ACEB070303F57C5300F00040F3
:103C600003F1FF032DE980494FEA154B09B44FEAF0
:103C7000144325EA0B4E24EA03480FF2042606EB10
:103C8000132749083E785FEA320203FB0667C7F54F
:103C9000000707FB06F64FEA54374FEAD64606F10F
:103CA000020607FB066CCCF1005C4FEA1C472CEACD
:103CB000074C07FB06F40CFB06F504EB15464FEA30
:103CC000961634BF00204FF000404FEAD13706FB74
:103CD00007FC4FEA1C4C0CFB0BF7D21B03FB0CF749
:103CE00061EB07010CFB0EF7B0EB074072EB1742DC
:103CF0000CFB08F734BFA2EB0742B2EB074261EBC3
:103D000017414FEA0C444FEA910706FB07FC4FEAC4
:103D10001C4C0CFB0BF7B0EBC74072EB573203FBAC
:103D20000CF734BFA2EBC742B2EBC74261EB57318D
:103D30000CFB0EF7B0EBC70072EB57720CFB08F7E9
:103D400034BFA2EBC702B2EBC70261EB5771039F0E
:103D50004FEA816141EA921104EBCC044FEAD1377A
:103D60004FEA826206FB07FC42EA90124FEA80604B
:103D70004FEA1C4C0CFB0BF7D21B03FB0CF761EB5F
:103D800007010CFB0EF7B0EB074072EB17420CFB80
:103D900008F734BFA2EB0742B2EB074261EB1741D1
:103DA0004FEA8C554FEA910704EB9C2406FB07FC75
:103DB0004FEA1C4C0CFB0BF7B0EBC74072EB5732D1
:103DC00003FB0CF734BFA2EBC742B2EBC74261EB77
:103DD00057310CFB0EF7B0EBC70072EB57720CFBC0
:103DE00008F734BFA2EBC702B2EBC70261EB577111
:103DF00015EB4C254FEA816141EA92114FEA82624C
:103E00004FEAD13742EA901206FB07FC44F1000466
:103E10004FEA80604FEA1C4C0CFB0BF7D21B03FBF4
:103E20000CF761EB07010CFB0EF7B0EB074072EBF0
:103E300017420CFB08F734BFA2EB0742B2EB074274
:103E400061EB174115EB1C154FEA813141EA9241B4
:103E50004FEA823242EA90424FEA80304FEA0C76D3
:103E600044F1000448EA03434EEA0B484FF0000EC9
:103E7000B2EB080C71EB030724BF624639464EEBE8
:103E80000E0E4FF0000B0018524149414BEB0B0B4B
:103E9000B2EB080C71EB03077BF1000B24BF624609
:103EA00039464EEB0E0E4FF0000B001852414941BF
:103EB0004BEB0B0BB2EB080C71EB03077BF1000B28
:103EC00024BF624639464EEB0E0E51EA020718BF78
:103ED00046F0010616EB0E7655F1000254F1000192
:103EE00003D5BDE88901BDE80088BDE88901B619A0
:103EF000BDE80048524141EB0101A3F101037047C5
:103F000080807F7E7D7C7B7A797877767675747316
:103F1000727171706F6E6E6D6C6C6B6A6A696868D5
:103F2000676666656464636362616160605F5F5E6B
:103F30005E5D5D5C5C5B5B5A5A59595858575756E1
:103F40005655555554545353525252515150505046
:103F50004F4F4F4E4E4D4D4D4C4C4C4B4B4B4A4A98
:103F60004A494949484848474747474646464545DC
:103F70004544444444434343434242424241414115
:103F8000002B26D4770021D01CB54FEA370703B4A5
:103F90004FF010004FF010014FF000000FBC0BF17C
:103FA000010BBDE81040BBF1010F08BF5FEA170726
:103FB00022BF12F1010211F101014FF0004143F162
:103FC000000300F0004043EA00007047F9D35708AF
:103FD000DAE746EA064613F1400F4FEA16461FDDC0
:103FE00013F1200FDFBF16430A46002120335B4246
:103FF000C8D0C3F1200746EA064602FA07F74FEA9F
:10400000164646EA0706C3F1200722FA03F201FA30
:1040100007F721FA03F14FF0000342EA0702B1E784
:1040200046EA020646EA06464FEA164646EA010610
:10403000BCBF46EA0646360C4FF000034FF00002C4
:104040004FF000019EE72DE9C048934630B491E857
:10405000380007C831EA400C48BF34EA430C03D5A6
:10406000FFF7F2FDFFF78CFFF0BCBDE800882DE9FB
:10407000C048934630B491E8380007C810F0804F2C
:1040800008BF13F0804F03D100F005F8FFF778FF69
:10409000F0BCBDE8008820F07F4780EA030023F0F1
:1040A0007F4C07EB0C03A3F57C5300F00040A3F119
:1040B000FE0392F0000F00F0B38095F0000F00F0C7
:1040C00077802DE901494FEA11404FEA144621EA71
:1040D000004800FB06FC24EA064708FB06F607FB3F
:1040E00008F800FB07F718EB06484CEB164C4FEAB4
:1040F000124B18EB07484FEA15464CEB174022EAE3
:104100000B4E0BFB06FC25EA06470EFB06F607FBEB
:104110000EFE0BFB07F71EEB064E4CEB164C4FF05A
:1041200000061EEB074E4CEB174B18EB0B0840F14B
:10413000000018EB0E0B58EB000840F100008F1A3E
:104140004FF000013CBFC943661B14BFB5EB040C24
:1041500000213CBFC943F61B4FEA17444EEA8E0EBE
:1041600027EA04454FEA1C4704FB07622CEA074C88
:1041700005FB07F70CFB05F604FB0CFC16EB0746EA
:1041800042EB174216EB0C4642EB1C421BEB0606B9
:1041900058EB0202414146EA9E0601D5BDE801897D
:1041A000B619524141EB0101A3F10103BDE80189B8
:1041B0004FEA14454FEA114724EA054621EA074C25
:1041C00005FB07F406FB07F70CFB06F105FB0CFCEF
:1041D00011EB074144EB17444FEA124711EB0C4136
:1041E00044EB1C4422EA074C05FB07F206FB07F7E9
:1041F0000CFB06F605FB0CFC16EB074642EB1742E0
:1042000016EB0C4642EB1C456A1854F1000148BFFE
:104210007047B619524141EB0101A3F10103704708
:1042200095F0000F37D04FEA11424FEA144721EAC8
:10423000024624EA074C02FB07F106FB07F70CFBDA
:1042400006F402FB0CFC14EB074441EB17414FEA68
:10425000154714EB0C4441EB1C4125EA074C02FBCB
:1042600007F506FB07F70CFB06F602FB0CFC16EB4A
:10427000074645EB174516EB0C4645EB1C42121959
:1042800051F1000148BF7047B619524141EB01019D
:10429000A3F1010370474FEA14454FEA114724EA9E
:1042A000054621EA074C05FB07F106FB07F70CFB67
:1042B00006F24FF0000605FB0CFC12EB074241EB47
:1042C000174112EB0C4251EB1C4148BF704792184A
:1042D00041EB0101A3F101037047490050EAC120FD
:1042E00018BF04204A0D18BF40F0010040F2FF72D1
:1042F000B2EB515F08BF40F00200012808BF052063
:10430000704730380A2801D20120704700207047DA
:1043100010B500290AD00878002807D0054878444D
:10432000FFF7E0FB002801D0002010BD02487844D0
:1043300010BD00002A0A0000220A000010B591EA10
:10434000030F48BF83F0004300F1C083841A71EB70
:10435000030C05D2121943EB0C03001B61EB0C019B
:10436000DFF824E14FEA1154A4EB135C1EEA430F7B
:1043700018BF9EEA445F73D023EA0E03DCF1200EDF
:1043800021EA045143F4801332D322FA0CFE10EBDD
:104390000E0023FA0CFE41EB0E01CCF1200E03FAC5
:1043A0000EFE10EB0E0051F10001B1F5801FCCF1B3
:1043B000200E32D201EB045112FA0EF2BDE8104089
:1043C00058BF7047401C38BF5FEA420218BF7047B1
:1043D000002814BF20F0010041F100014FEA410321
:1043E00013F5001F38BF7047A1F1C04100F02ABB90
:1043F000012A43EB0302ACF1200CDCF11F0E32BFAB
:104400004FF0000E23FA0CF310EB030041EB0451C4
:10441000B4EB115FD0D0A1EB045101F58011490834
:104420005FEA300001EB04510ED350F1000038BFB9
:1044300012FA0EFE08D1BDE81040C9E7401C38BF93
:104440005FEA4202CAD1C3E7BDE810404FEA410328
:1044500013F5001F38BF7047A1F1C04100F0F2BA58
:104460009EEA445F08D011EA5E0FBDE8104004BF29
:1044700001F0004100207047BDE8104070B500F029
:1044800093FA00BF64FBBE3E0000E0FF491058BF36
:10449000C1F140415B1058BFC3F140438B42EFF381
:1044A000008070472DE9C04130B4DFF8A0C23CEA7B
:1044B000111418BF3CEA131400F0EC8081EA0305E4
:1044C0001CEA111444EAD57418BF1CEA131500F055
:1044D000C780A4EB05044FF0004545EAC12145EA39
:1044E000C32341EA505143EA525304F17F74994285
:1044F00004F500344FEAC0204FEAC22208BF9042C0
:1045000000F09C804FEA13650FF24016765D4FEA8B
:10451000134506FB05F7C7F1807706FB07F74FEA5F
:10452000D737A7FB03687642C8F58038A7FB06CECD
:1045300038BFA8F1010807FB08E64FF0000EA6FB04
:10454000028CE6FB03CEDCF1000CCEF1004E38BF4E
:10455000AEF1010EA6FB0C584FF000074FF000051E
:10456000E6FB0E87A1FB08C6A0FB07CE16EB0E06E6
:1045700045F10005E1FB076515F1E04E7EBFA4F5AE
:1045800080345FEA46066D4116F1800745F100056B
:104590004FEA17274FEA066647EA0567A6F1DE46A7
:1045A000B6F1805F4FEA15251FD9384624F0010C7B
:1045B00005EBC471BCF1FE6F01EB0C1102D8F0BC2D
:1045C000BDE8008124425CBF01F5801E9EEAC47FE5
:1045D00002D4F0BCBDE80081244238D4F0BCA1F183
:1045E000C041BDE8004100F02DBA4FEAD22242EAB4
:1045F00043524FEAD323A7FB02864FEAD02040EA7A
:10460000415007FB03661EEA0E0F4FEAD12105FB5E
:10461000026658BFA6EB0056B6EB00564FEA520EA4
:104620004EEAC37E18EB0E0E56EB530EBDD518EBBB
:1046300002085E417F1C55F10005B6E74FF4801576
:104640004FF000074FF000064FF00008ADE7F0BC58
:104650004FF0000001F1C04101F00041BDE80081D0
:1046600011EA0C1F0CEA131500D00CE013EA0C1F22
:1046700000F025804FF00000F0BC81EA030101F05A
:104680000041BDE80081F0BC81EA0301BDE80041C2
:1046900000F0D8B9F0BCBDE8004170B500F084F975
:1046A000097EFC3E00F007B881EA03014FF00000EC
:1046B00001F00041704781EA030100F0C3B9F0BC8A
:1046C0004FF000002249BDE800417047FFFDFBF9B3
:1046D000F7F5F4F2F0EEEDEBE9E8E6E4E3E1E0DE35
:1046E000DDDBDAD8D7D5D4D3D1D0CFCDCCCBCAC8A7
:1046F000C7C6C5C4C2C1C0BFBEBDBCBBBAB9B8B7CE
:10470000B6B5B4B3B2B1B0AFAEADACABAAA9A8A8C0
:10471000A7A6A5A4A3A3A2A1A09F9F9E9D9C9C9B8E
:104720009A99999897979695959493939291919039
:104730008F8F8E8E8D8C8C8B8B8A898988888787CA
:104740008685858484838382828181800000FF073F
:104750000000F87F4FEA1153A3F58063D3F11E03E5
:10476000A8BFD3F1200C08DB4FF0004242EAC1227F
:1047700052EA505232FA03F0704709420BD4102B20
:10478000C4BF0020704703F5787CBCF1FF3F05D023
:104790004FF0FF3070474FF00000704770B500F0E9
:1047A00003F900BF4992248000207047F0E710F021
:1047B000004248BF4042B0FA80F310FA03F10AD039
:1047C000C3F11D0303F580634FEA415002EB03522E
:1047D00002EBD12170474FF00000704751EA030C03
:1047E00017D41CF5801F58BFBCF5801F00F1068050
:1047F000994218BF704708BF9042704707D711F51C
:10480000801F58BF13F5801F19D499427047894201
:1048100070471CF5801F08D5BCF5801FF7D58B426B
:1048200018BF704708BF824270474FF4001C1CEB52
:10483000410F38BF1CEB430F01D28B42704770B55C
:1048400000F0B2F8922449004FF000514FF080532D
:10485000FFF71CBEDFF848C170B51CEA111E1EBF71
:104860001CEA13159EEA0C0F95EA0C0F00F06F80FE
:1048700081EA030423EA4C134EEAD47E21EA4C1168
:1048800041F4801143F48013AE44A1FB024CA0FB21
:104890000365AEF17F7E361955EB0C05A1FB034C89
:1048A0004CF10003A0FB021C16EB0C06654153F112
:1048B0000003094218BF46F0010613F4007F0BD134
:1048C0004FEA03314FEA0530340341EA155140EA1B
:1048D00016506FF003020AE04FEAC3214FEAC520E9
:1048E000F40241EA555140EA56506FF0020202EBE1
:1048F0002E4201EB025585EACE710AD05FEA440CE4
:1049000018BF24F0004450F1000041F1000120EAFA
:10491000D47040F2FE7C624500D270BDA84214BF44
:104920004FF080444FF04044002E08BF0024BEF1F9
:10493000806FA8BFA1F1C041BDE8704080F28280C5
:104940004FF0000001F1C04101F0004170479EEAC4
:104950000C0F0CEA131518BF95EA0C0F06D04FF098
:10496000000081EA030E0EF0004170BD00F01CF85B
:104970008900013E00F007B800F009B84FEA430C87
:104980005FEA5C5C08D081EA030100F05BB84FEAA3
:10499000410C5FEA5C5CF6D14FF0000001497047C2
:1049A0000000FF070000F87F0EF1020E2EF0030E4C
:1049B0005EF8046B364205D4012A43EB030515F576
:1049C000001F12D8012841EB010C1CF5001F0CD868
:1049D0000ED14FEAD17C15F5001F0CEB4C0C0CF1FD
:1049E000020C08BF4CEBD37C04E04FF0080C01E054
:1049F0004FEAD37C0CEB4C0526FA05F606F00706C9
:104A0000B6F1040C06D20EEB860CBDE870404CF0FB
:104A1000010C6047DFE80CF0090B02024FF0004187
:104A20004FF00000A1F5002170BD19461046012885
:104A300051EB010418BFD4F5001484BF002001F02D
:104A4000004170BD0808A0F500114FEA3101704720
:104A500053EA010C17D41CF5801F58BFBCF5801F0A
:104A600000F106808B4218BF704708BF8242704732
:104A700007D713F5801F58BF11F5801F19D48B423B
:104A800070479B4270471CF5801F08D5BCF5801FFE
:104A9000F7D5994218BF704708BF904270474FF44E
:104AA000001C1CEB430F38BF1CEB410F01D2994295
:104AB00070470FB40CBC03BCFFF7C1BE10B591EA40
:104AC000030F48BF83F000433FF540AC841A71EBFD
:104AD000030C07D212198CF0004C43EB0C03001BA3
:104AE00061EB0C01DFF8A4E14FEA1154A4EB135C75
:104AF0001EEA430F18BF9EEA445F00F0B08023EA2D
:104B00006E03524221EA0451C3EB6E0338BF5B1EB1
:104B1000DCF1200E25D322FA0CFE10EB0E0043FA36
:104B20000CFE41EB0E01CCF1200E03FA0EFE10EB51
:104B30000E0051F10001CCF1200E29D412FA0EF230
:104B400001EB0451BDE8104058BF7047401C1CBF2A
:104B5000B2F1004F704700280CBF491C20F0010043
:104B6000704712EB020E43EB030218BF4FF0010E29
:104B70004EEA4202ACF1200CDCF11E0E54D943FA8D
:104B80000CFE10EB0E0051F1FF31CCF11E0ED5D50D
:104B90000EF1010E12FA0EFE404141EB010101EB54
:104BA000445C5FEA5C5C10D910EBDE7001EB0451F1
:104BB00038BFBEF1004FBDE8104018BF7047002855
:104BC0000CBF491C20F00100704730D24FEAD42CB2
:104BD00011F5001124F400641BD0B1FA81F20B3AF4
:104BE000A41AA41ED2F12003914030FA03F3194312
:104BF000904001EBCC71002C01EB0451BDE810405A
:104C0000A8BF704701F1C0414FF0000001F0004122
:104C10007047B0FA80F310FA03F100D110BDE41A26
:104C2000173C4805C90AE4E701EB045110BD4910DF
:104C300001EB0451BDE810404FEA300002E04FF0B4
:104C4000000170474A0008BF0042F8D0B2F5001FCB
:104C500028BF704701F000414FF0000070479EEA06
:104C6000445F07D011EA5E0FBDE8104004BF002189
:104C700000207047BDE8104070B5FFF795FE00BFFB
:104C800040DFF63E83F00041104670470000E0FF31
:104C9000FEF7A0BC02400000000000A000000000E1
:104CA00005400000000000C8000000000C400000AB
:104CB0000000409C00000000194000000020BCBE25
:104CC0000000000034400000BFC91B8E000000043B
:104CD000B5400000504BCFD06607E2CF0100000086
:104CE0006C4100003E8251AADFEEA73401000000B3
:104CF000D9420000DCB5A0E23A301F97FFFFFFFF6A
:104D0000B4450000FD25A0C8E9A3C14FFFFFFFFF88
:104D1000FF3F00000000008000000000FF3F000097
:104D20000000008000000000644D0008000000202A
:104D30004800000028010008AC4D00084800002091
:104D400088070000440100081C0000004300000028
:104D5000F8FFFFFF0C0000000E0000000F00000035
:104D60002E00000000000000000000000000000015
:104D70000000000000000000000000000000000033
:104D8000B8880000000000000102030401020304CF
:104D9000060708090204060800A24A0400000000F1
:0C4DA000000000000102030406070809DF
:04000005080000ED02
:00000001FF
